:040000006F00B035A8
:100004000000000000000000A4060000A606000096
:1000140000000000580B0000000000000000000079
:10002400580B0000580B0000000000000000000006
:10003400580B000000000000580B000000000000F6
:10004400580B0000580B0000580B0000580B000020
:10005400580B0000580B0000580B0000580B000010
:10006400580B0000580B0000580B0000580B000000
:10007400580B0000580B0000580B0000580B0000F0
:10008400580B0000580B0000580B0000580B0000E0
:10009400580B0000580B0000580B0000580B0000D0
:1000A400580B0000580B0000580B0000580B0000C0
:1000B400580B0000580B0000580B0000580B0000B0
:1000C400580B0000580B0000580B0000580B0000A0
:1000D400580B0000580B0000580B0000580B000090
:1000E400580B0000580B0000580B0000580B000080
:0C00F400580B0000580B0000580B0000D7
:100100003D432A876373C3029377F700BDEFADE5E4
:10011000937606FF3D8ABA960CC34CC30CC74CC7F6
:100120004107E36BD7FE11E28280B306C3408A0623
:100130009702000096966780A6002307B700A306E3
:10014000B7002306B700A305B7002305B700A30433
:10015000B7002304B700A303B7002303B700A3022B
:10016000B7002302B700A301B7002301B700A30023
:10017000B7002300B700828093F5F50F93968500B2
:10018000D58D93960501D58D61B79396270097027B
:10019000000096968682E78086FA9680C1171D8FAA
:1001A0003E96E374C3F8A5B785476304F50001459F
:1001B0008280411106C6854537150140130505802B
:1001C000EF00207462056185B24041018280914751
:1001D00063E2A706411106C60A0589679387C71916
:1001E0003E951C418287372500001305051BEF0053
:1001F000506AB24041018280372500001305851BFB
:10020000EF003069FDB7FD23AA85372500001305EF
:10021000451CEF007056F1BF372500001305051E81
:10022000EF003067F9B7372500001305C51EEF0052
:100230005066C1B78280011106CE02C202C402C656
:1002400085454145EF00207F89672312F100C147B2
:100250003EC68D473EC44C00371501404D23F24049
:1002600005618280011106CE02C202C402C6854524
:100270001145EF00407C85472312F100930780026F
:100280003EC68D473EC44C0037150140130505801E
:10029000BD23F24005618280411106C622C4613F40
:1002A000D13785460546B70500009385851A370482
:1002B00000201305840A992CB70500009385E51CDE
:1002C0001305840ABD240545992D352AED2671654F
:1002D00013050520A921B707002083A507083725A6
:1002E00000001305851FEF0030492923AA85372513
:1002F000000013058520EF00304837250000130566
:100300008521EF0010591305840A35241545C92E9F
:10031000DDBF4111B717024098431367170098C318
:10032000D843B706FFF0758FD8C39843B706F7FEDA
:10033000FD16758F98C39843B706FCFFFD16758FA1
:1003400098C3D843B70601FFFD16758FD8C337078A
:100350009F0098C702C402C69843C166558F98C3D0
:1003600037160240B706020005671C42F58F3EC6ED
:10037000A24785073EC4B24781E7A247E397E7FE5D
:10038000B71702409C431397E700635A070085475D
:100390003EC6324785476306F7004101828002C6A8
:1003A000CDBFB7170240D843D8C3D843D8C3D8432A
:1003B00013670740D8C3D843B706C1FFFD16758F32
:1003C000D8C3D843B7062900558FD8C39843B7067A
:1003D0000001558F98C3371702401C43939667005E
:1003E000E3DD06FEB7170240D843719BD8C3D8435C
:1003F00013672700D8C3B71602402147DC42B18BF0
:10040000E39EE7FE59BFB7170240DC43B18B1147AB
:10041000638DE70421476383E70691CB370700200C
:10042000B7177A00938707202320F70809A8370712
:100430000020B7177A00938707202320F708B71703
:100440000240DC43918313F7F700B707002093873E
:100450000700BA9783C60700B707002093870708ED
:1004600098433357D70098C3828037070020B717C7
:100470007A00938707202320F708D1B73717024067
:100480005C435843C166758FC983BD8B8907C546D8
:100490006384D7021DEF3747024003270780418B53
:1004A00011CF37177A0013070720B387E702370702
:1004B00000202320F70861B7C947E9BF37173D007F
:1004C00013070790B387E702370700202320F708B8
:1004D000BDB73717024058439316E70063DD0600A7
:1004E00037173D0013070790B387E702370700204F
:1004F0002320F708A9B737177A0013070720B38717
:10050000E702370700202320F70815BF2310D50086
:1005100023050500FD57A304F50023110500231250
:1005200005002303C500133616002304C5004CC57F
:1005300082800CC98280411106C622C42A845C458F
:100540000355050082971375F50F8347A40091C7E3
:100550008357240085072311F400834784006381B7
:10056000A702835744008507C207C1832312F40002
:1005700029476379F7002304A4002312040019A07B
:10058000231204008347A40005476384E7041397FC
:100590008701618719CB09476384E70E0D47638F95
:1005A000E706B2402244410182800347840083472A
:1005B00064006306F700FD57A304F400DDB7A3044D
:1005C000040085472305F4001C48E1DF01458297BC
:1005D000C9BF0347840083476400630FF7002311FA
:1005E00004008547A304F4008D472305F4001C484C
:1005F000CDDB0545829775B7035724009307C012DA
:10060000E3F1E7FA231104008947A304F40023056A
:10061000F4001C48D9D70945829761B70347840085
:10062000834764006307F702035724009307C0035E
:10063000E3F9E7F6230504008347740095EB8D4743
:10064000A304F4001C4899C30D458297A30304003A
:1006500089BFA304040085472305F4008347740081
:100660008507A303F4001C488DDF0145829715BF61
:100670009147A304F4001C48F1DB11458297F9B7B8
:100680000347840083476400E30DF7F0231104005F
:100690008547A304F400230504001C4899D30545AD
:1006A000829701B701A037E700E0B707EFBE938755
:1006B00007083CC701A0B707002083A70708371722
:1006C0007A0013070720B3D7E70293F7F70F238DBC
:1006D000F1801307803EB387E702239CF18082807C
:1006E000B7F700E0D843799BD8C303D7818133069D
:1006F000A702814690CBD4CB98431367070198C3D8
:1007000098431367170298C337F700E05C43858B63
:10071000F5DF37F700E01C43F99B1CC38280797139
:1007200006D622D42A84854511651105292693070A
:100730000020231AF1008D473ECCE1473ECE4C0805
:1007400037150140130505805D2822C223140100DE
:10075000231501002316010023180100A1472317C8
:10076000F1004C003744014013050480E524854521
:10077000130504807D26B250225445618280011108
:1007800006CE22CC26CA4AC84EC6B2896357C002DA
:10079000AE843389C50037440140130404809305B7
:1007A00000042285652665DD85048385F4FFC20586
:1007B000C18122857926E31499FE4E85F240624478
:1007C000D2444249B2490561828003A741803A95EB
:1007D00093874185636CF500B757002093870780A6
:1007E00063E8A70023A2A1803A8582807D57EDBFF0
:1007F0007D57DDBFB7F7FF1F03A5477082809C457B
:1008000093F8F700C18B81C7DC41B3E8F800B72744
:100810000240985BB707000FF98F99EF0547A38D4A
:10082000E180B7170140631DF50083D70500B5834C
:100830002390F50089EB8280B7170140630FF50024
:1008400083C70500A9CF10418147054E3D4F930E48
:100850008002930F8004214309A883C7B181EDD39F
:10086000E9B754C98507638B6702B316FE0003D747
:100870000500758FE398E6FE139727003318EF0005
:100880001348F8FF3376C8003397E800598E98452F
:10089000E309D7FDE318F7FD14C9E9B710C103D781
:1008A00005009307F00F63FDE7045041A147054E93
:1008B000BD4F130F8002930E8004414331A054C9F1
:1008C00015A88507638D6702B316FE0003D70500E0
:1008D000758FE398E6FE1397270001173398EF0012
:1008E0001348F8FF3376C8003397E800598E9845CF
:1008F000E307E7FD9845E316D7FD14C9D9B750C102
:100900008280B71701406307F50008456D8D3335C8
:10091000A000828083C7B181EDDBB581FDB723AE36
:10092000A1808280B7170240DC43B18B11476382FC
:10093000E70821476385E70899C7B7177A009387C7
:1009400007201CC131A0B7177A00938707201CC16C
:10095000371602405C429183BD8B37070020130796
:100960000701BA9783C607001C41B3D7D7005CC103
:100970005442A1829D8ABA9683C60600B3D6D70098
:1009800014C55442AD829D8A369703470700B3D7FA
:10099000E7005CC55842398393763700138781801E
:1009A0003697034707001377F70FB3D7E7021CC941
:1009B0008280B7177A00938707201CC151BF371771
:1009C00002405C435843C166758FC983BD8B89075C
:1009D000C5466381D7020DEB3747024003270780E6
:1009E000418B19CB37177A0013070720B387E7022B
:1009F0001CC1B9BFC947C5B737173D0013070790DA
:100A0000B387E7021CC1A9B73717024058439316B2
:100A1000E70063DA060037173D0013070790B38736
:100A2000E7021CC135B737177A0013070720B387D1
:100A3000E7021CC131BF99C5371702401C4F5D8DBD
:100A400008CF8280B7170240984F1345F5FF798D84
:100A500088CF8280797106D622D426D22A84AE84A9
:100A600003570501F577FD17F98F03D76500D98F77
:100A70002318F5008356C50083D7450003D78500AA
:100A8000D98F03D7A500D98F7D771307379F758F2F
:100A9000D98F2316F50083574501C207C18393F709
:100AA000F7CF03D7C500D98F231AF50068009D3D05
:100AB000B747014093870780630CF4045245814790
:100AC0006547B307F702B335A70290400A0681468F
:100AD0003305A702BE95292213074006B357E50246
:100AE000920793D647003307D702198D12051305D5
:100AF00025031307F0636370A702138507014205FE
:100B000041812314A400B250225492544561828042
:100B10006245814775B7130740063355E5025D8D81
:100B2000F9BF81C98357C5000967D98F2316F5001E
:100B300082800357C500F977FD17F98F2316F5005A
:100B4000828093F5F51F2312B500828003550500BE
:100B50006D8D3335A000828001A097010020938124
:100B600061D2174100201301E14917250000130548
:100B7000258697F5FF1F9385E5481386818163FAE3
:100B8000C5008322050023A0550011059105E3EA65
:100B9000C5FE13858181938541856377B500232048
:100BA00005001105E36DB5FEFD42739002BC8D4258
:100BB00073904280930280087390023097F2FFFF97
:100BC0009382824493E2320073905230EFF06FF4DC
:100BD00097F2FFFF9382826C73901234730020307F
:100BE000B687B2882A832E88639D061463F9C50AE6
:100BF0004167636EE61AB70700016363F6349356E4
:100C00008601E147171700001307C76236970347AD
:100C10000700BA97130700021D8F19CB3398E50020
:100C2000B357F500B318E60033E807013313E500C6
:100C300013D608013355C80293960801C182935711
:100C400003013377C802B385A60242073368F70071
:100C5000637AB80046989307F5FF636418016367E9
:100C6000B8303E853308B8403357C80242031353A7
:100C700003013378C802B386E6024208336868008D
:100C8000637BD80046989307F7FF636518017917CF
:100C90006363D8003E874205598D8145828001E615
:100CA0000547B358C702416763EAE80EB70700017A
:100CB00063ECF82893D68801E14717170000130763
:100CC0006757369783460700BE9693070002958FB5
:100CD000E5EB939E08013387154113DF080193DE8E
:100CE0000E018545935703013355E7033377E70337
:100CF000B306D5034207D98F63FAD700C697130707
:100D0000F5FF63E4170163E6D7263A85958F33D75D
:100D1000E703420313530301B3F7E703B30ED7030B
:100D2000C207B3E7670063FBD701C6979306F7FFD7
:100D300063E51701791763E3D70136874205598DBB
:100D4000828063E2D504C16763E2F604B70700015D
:100D500063E4F61E13D78601614897170000938756
:100D6000674DBA9703C70700130E00024297330E70
:100D7000EE40631A0E0C63EDB61C3335C500134507
:100D80001500814582808145014582809307F00FDF
:100D900063F3D71C13D786002148C1B71307F00FA0
:100DA000C686E37C17F193D68800A14739B71307AD
:100DB000F00FB286E378C7E493568600A14799B551
:100DC000B398F80033D6D50013DF0801335EE6038D
:100DD0003397F500B356D500558F939E080193DEE7
:100DE0000E013313F50093550701B376E603B3877D
:100DF000CE03C206CD8E63FBF600C6961306FEFF39
:100E000063E4161763F2F616791EC6969D8E33D6E6
:100E1000E60393170701C183B3F6E6033385CE02D9
:100E2000139706015D8F637BA70046979307F6FF34
:100E3000636817136376A7127916469793150E0108
:100E4000098FD18D45B5B357E600B396C601DD8E47
:100E500033D3E50013DF0601B357E303939E060186
:100E600093DE0E013398C5013357E500336807015F
:100E7000935808013316C6013373E303B385FE02AA
:100E80004203B368130163FBB800B6981387F7FFFA
:100E900063EAD80C63F8B80CF917B698B388B84071
:100EA00033D7E803420813580801B3F8E803338343
:100EB000EE02C208B3E5080163FB6500B6951308AE
:100EC000F7FF63EDD50863FB65087917B695C20790
:100ED000416FD98F1307FFFFB3F6E70093D80701DF
:100EE000718F4182B38EE602B3856540B386C60238
:100EF00013D80E013387E802BA96C2963386C80229
:100F000063F3E6007A9693D80601469663E2C5023B
:100F10006385C5003E858145828041677D17F98ED6
:100F2000C206B3FEEE003315C501F696E374D5FE96
:100F30001385F7FF8145828013D70601414831BDF3
:100F400093560601C1477DB993D60801C147B5B391
:100F50008145054582803687014801B5428785BFB6
:100F60003E86E9BDBA871DBF328E4DB579154698CC
:100F7000D5B97915C69759BB39713EDA2ED232D41C
:100F800036D63AD842DC46DE9387C18022CC8043F5
:100F900026CA06CEAA8409C41C4C99E322851523CF
:100FA0000C4454102686228536C6EF007016F24097
:100FB0006244D24421618280011126CA4AC806CE09
:100FC00022CC4EC652C4AA842E8901C51C4D91E381
:100FD000CD299C4C804499E32685E5219717000094
:100FE00093874737631CF402C0408357C400A18B2A
:100FF000B1C71C48A1C7FD59294A1C4483450900B3
:10100000FD17B1E91CC463DE07062286A9452685C3
:101010007120FD576308F502294535A09717000098
:10102000938747356314F4008044C1B797170000D5
:1010300093874730E31BF4FAC04445BFA285268559
:10104000312A55D97D55F2406244D2444249B249D1
:10105000224A056182801CC4050963D70700184C29
:1010600063CBE700638945011C401387170018C054
:101070002380B70059B7228626850D20E31F35F758
:10108000D1B71C401387170018C029472380E700F9
:1010900061B79387C180AA85884339BF011122CCEB
:1010A00026CA4AC806CE4EC6AA842E89328401C5F5
:1010B0001C4D91E33921971700009387A7296319E5
:1010C000F406C0401C4C1CC48357C400A18BC9C388
:1010D0001C48BDCF1C4808409379F90F1379F90FCC
:1010E0001D8D5C486346F500A2852685652C2DE59F
:1010F0001C440505FD171CC41C401387170018C0AD
:10110000238037015C486389A7008357C400858B1F
:1011100081CBA9476316F900A285268561240DEDD0
:10112000F24062444A85D2444249B2490561828014
:1011300097170000938707246314F400804459B77D
:10114000971700009387071FE31EF4F6C0449DBF66
:10115000A285268521203DDD7D59D9B74111938790
:10116000C18026C2844322C44AC006C62A892E846E
:1011700089C49C4C99E32685A9269717000093877C
:10118000671D631CF402C0400317C40093170701D6
:10119000C18393F68700B5EE93F607019DEEA54750
:1011A0002320F900136707042316E4007D55B2409D
:1011B000224492440249410182809717000093879C
:1011C000671B6314F4008044C1B79717000093872E
:1011D0006716E31BF4FAC04445BF918B8DC74C588A
:1011E00089C9930744046384F5004A85352B232A73
:1011F00004028357C4002322040093F7B7FD23168B
:10120000F4001C481CC08357C40093E787002316D2
:10121000F4001C4881EF8357C4001307002093F7A4
:1012200007286385E700A2854A8585218357C40086
:1012300013F7170005C75C4823240400B307F040E8
:101240001CCC1C480145A5F78317C40013F70708F9
:1012500039DF93E707042316F40089BF898B014720
:1012600091E3584818C4F1BF83D7C500011122CCBF
:1012700026CA06CE4AC84EC613F78700AA842E8413
:1012800071EFD841634DE000B841634AE000014589
:10129000F2406244D2444249B249056182805854C6
:1012A0007DD703A904009396370123A0040063DDD2
:1012B000060670488357C400918B99C75C401D8E09
:1012C0005C5899C33C401D8E5C540C508146268569
:1012D0008297FD570357C400631DF5009440F547FE
:1012E00063E8D706B70740208507B3D7D700858BBB
:1012F000A5C31C48232204001CC09317370163D8E0
:101300000700FD576314F5009C4091E368C84C58F2
:1013100023A02401ADDD930744046384F5002685F2
:101320002121232A0402A5B70C50014685462685B3
:101330000297FD572A86E31FF5F69C40A5DF754707
:101340006385E70059476394E70423A0240181B72C
:10135000136707042316E4007D551DBF83A905010B
:10136000E38709F203A905008D8B23A0350133091A
:101370003941014791E3D84918C4E35A20F11C547C
:101380000C50CA864E86268582976349A0008357F3
:10139000C40093E707042316F4007DBFAA9933091C
:1013A000A940E1BF9C49B9CF011122CC06CE2A84C5
:1013B00011C51C4D81E72EC62922B24597170000A2
:1013C000938747F9639BF5004C408397C50095C709
:1013D00022856244F240056141BD97170000938762
:1013E00067F96394F5000C44CDB797170000938715
:1013F00067F4E39CF5FC4C44C9BFF24062440145EC
:101400000561828001458280411122C406C62A847A
:101410002316B5002317C50023200500232205004D
:10142000232405002322050623280500232A05007E
:10143000232C0500214681451305C505EFE05FCC4F
:1014400097170000938767B45CD0971700009387C5
:10145000C7B61CD497170000938707BB5CD49717B7
:1014600000009387C7BD00D01CD8B2402244410180
:10147000828097050000938525F3A9A2411126C219
:10148000130680069384F5FFB384C4024AC02E89F4
:1014900022C406C693854407252E2A8401CD232025
:1014A000050023222501310508C4138684068145E1
:1014B000EFE01FC52285B240224492440249410117
:1014C00082801C4DADE3411106C622C4970700007F
:1014D000938767FA1CD5938701819C4323240504D5
:1014E00023260504232805046314F50085471CCD35
:1014F0002A841D2848C02285052808C422852D205D
:1015000048C4484001469145013708440546A54571
:10151000E53D48440946C945C53D85471CCCB24018
:10152000224441018280828041119387018126C239
:1015300084434AC006C69C4C22C42A8999E3268566
:101540004937938484048044DC40FD1763D6070048
:101550009C40B9CF8440C5BF0317C40039E7C177A9
:1015600085072322040623200400232204002324C9
:1015700004005CC423280400232A0400232C040054
:10158000214681451305C405EFE09FB7232A0402D5
:10159000232C040223240404232604042285B240BD
:1015A000224492440249410182801304840671BF9F
:1015B00091454A85E13588C051FDB1472320F900A6
:1015C0000144E9BF797122D44AD052CC56CA5AC8D4
:1015D0005EC606D626D24ECE2A8AAE8A130485046B
:1015E0000149054BFD5B09ECB25022544A859254E7
:1015F0000259F249624AD24A424BB24B456182805B
:10160000044483294400FD1963D409000040E1BF6C
:1016100083D7C400637BFB008397E4006387770173
:10162000A6855285829A3369A90093848406E1BF16
:101630001971A6DAAE848395E500A2DC86DE3284D9
:1016400063DC050083D7C40023A0060093F70708D6
:1016500085E7930700401DA0300836C6EF00B02391
:10166000B246E34105FE7247BD67F98F7977BA97B5
:1016700093B717009CC2F1BF930700041CC0F6503B
:101680006654D65401450961828083D7C500011193
:1016900022CC06CE26CA4AC8898B2E8489CF9307CE
:1016A00074041CC01CC885475CC8F2406244D24424
:1016B00042490561828074003000AA84953FA245AA
:1016C0002A892685312201ED8317C40013F70720EC
:1016D00069FFF19B93E727002316F400C9B797072A
:1016E0000000938747D99CD48357C40008C008C81A
:1016F00093E707082316F400A2475CC8B24791CFCE
:101700008315E4002685EF00B01B01C98357C40090
:10171000F19B93E717002316F4008357C400336945
:10172000F9002316240151B7DDC183A7C5FF41117C
:1017300022C406C626C21384C5FF63D307003E94A5
:10174000AA84EF00D01E938701829C4381EF23225D
:10175000040023A081822244B240268592444101A4
:101760006F00101D637EF40014403307D4006396AD
:10177000E7009843DC43369718C05CC0D9BFBA87EE
:10178000D84319C3E37DE4FE94433386D700631F37
:1017900086001040B29694C33386D700E31DC7FA83
:1017A00010435843B29694C3D8C375B76375C40049
:1017B000B1479CC04DB71040B306C4006316D700B4
:1017C00014435843B29614C058C0C0C369B782804E
:1017D000011126CA93843500F19806CE22CC4AC85E
:1017E0004EC6A104B14763F3F404B14463E2B40408
:1017F0002A89EF00D0139387018298433A8439E015
:10180000938741829C4391E781454A85812F23A29A
:10181000A182A6854A859927FD5963193507B147E5
:101820002320F9004A85EF00B01029A0E3D004FC82
:10183000B1471CC10145F2406244D2444249B24919
:10184000056182801C40858F63CF0702AD4663F639
:10185000F6001CC03E9404C031A05C4063138702B4
:1018600023A0F1824A85EF00B00C1305B400930762
:10187000440061993307F5405DDF3A94898F1CC0BD
:101880005DBF5CC3C5B72287404095BF13043500D8
:101890007198E30285FCB305A4404A85C125E31C89
:1018A00035FBB5BF1C46FD171CC663DA0700184E92
:1018B00063C5E700A9476394F5006FF02FFE1C4253
:1018C0002E851387170018C22380B700828001116C
:1018D00022CC26CA4AC84EC652C406CE2A89AE8930
:1018E0003284B304D6007D5A63149400014509A8DC
:1018F000834504004E864A8575370504E31645FF87
:10190000F2406244D2444249B249224A056182808F
:10191000357122CD26CB4AC94EC706CF52C556C314
:101920005AC1DEDEE2DCE6DAAA89AE843289368488
:1019300001C51C4D91E3713697170000938787A16D
:10194000639BF40C83A4490083D7C400A18BF5C723
:101950009C48E5C793070002A304F1029307000324
:1019600002D22305F10222C6930B5002971A0000FF
:10197000938A4AA2054C294B4A848347040099C3A1
:101980006390770FB30C2441638D0C00E6864A8682
:10199000A6854E852D3FFD576306F51E9256E696A9
:1019A00036D283470400638F071CFD5713091400C8
:1019B00002C802CE3ECA02CCA309010482D48345E8
:1019C000090015465685B92713041900C24759E97D
:1019D00013F7070109C713070002A309E10413F76E
:1019E000870009C71307B002A309E1048346090071
:1019F0001307A0026380E608F2474A848146254621
:101A00000347040093051400130707FD6379E60AF2
:101A1000B5CA3ECE85A8971700009387A795639512
:101A2000F40083A489000DB797170000938787906F
:101A3000E39CF4F083A4C90001BFA6854E85EFF0B6
:101A4000EFF109D97D55FA406A44DA444A49BA4966
:101A50002A4A9A4A0A4BF65B665CD65C0D61828024
:101A6000050421BF330555413315AC00C98F3EC86D
:101A70002289B1B7324793064700184336C66349F7
:101A800007023ACE034704009307E002631FF704FE
:101A9000034714009307A002631BF702B24709042F
:101AA000138747009C433AC663C107023ECA35A864
:101AB0003307E04093E727003ACE3EC8E1B7B3874B
:101AC000670385462E84BA9725BFFD57C5B7050421
:101AD00002CA814681472546034704009305140046
:101AE000130707FD6376E606F1F2834504000D4611
:101AF000171500001305858A312D11CD97170000A9
:101B00009387C7891D8D93070004B397A7004245AB
:101B100005045D8D2AC88345040019461715000089
:101B200013050588130914002304B102E5233DC100
:101B300097E7FFFF9387074D95E74247B247137733
:101B4000071009CF91073EC69257D2973ED22DB5C6
:101B5000B387670385462E84BA97BDBF9D07E19B77
:101B6000A107D5B7780097060000938686D626860B
:101B70000C084E8597000000E7000000FD572A8AF8
:101B8000E314F5FC83D7C40093F70704E39C07EA4A
:101B9000125555BD780097060000938686D3268699
:101BA0000C084E85012AD9BF797156CA9C49BA8A58
:101BB000984522D426D24ECE52CC06D64AD05AC808
:101BC0005EC6AA892E84B284368A63D3E700BA87B8
:101BD0009CC00347340419C385079CC01C4093F77D
:101BE000070281C79C4089079CC003290400137920
:101BF0006900631A0900130B9401FD5B5C44984073
:101C0000998F634CF9041C408346340493F7070210
:101C1000B336D000A5EB13063404D2854E85829AE4
:101C2000FD576303F5041C4011469840998B5444BA
:101C300081446397C700B384E64063D304008144C2
:101C40001C4418486354F700998FBE9401496904F5
:101C50007D5B63982405014509A885465A86D2858F
:101C60004E85829A631E75017D55B250225492545E
:101C70000259F249624AD24A424BB24B45618280D4
:101C80000509ADBF3307D40013060003A301C70441
:101C90000347540493871600A2978906A381E7049B
:101CA0009DBF85462286D2854E85829AE30E65FBCE
:101CB000050945B7797122D426D24AD04ECE06D630
:101CC00052CC56CA5AC8B68983C685019307900676
:101CD0003289AA842E8413863504638DF60263E26A
:101CE000D706930780056387F61863EDD7006380F6
:101CF000062293073004638EF60A930A2404230114
:101D0000D404C9A0930730066385F60A93074006FA
:101D1000E395F6FE1C40084393F60708930545003B
:101D2000C5C61C410CC363D807001307D002B30714
:101D3000F040A301E404970600009386E666294775
:101D40006DA8930700076383F61663E5D702930730
:101D5000E006638AF6189307F006E390F6FA0C4063
:101D60001C4313F80508138547006307080608C3DA
:101D70009C438DA893075007E383F6FE93078007E3
:101D8000638AF61293073007E399F6F61C43D041B5
:101D900081459386470014C383AA070056859D2E6C
:101DA00001C53305554148C05C401CC8A30104046B
:101DB00071A81C43930A2404938647009C4314C3D0
:101DC0002301F4048547D5B793F607041C410CC3DF
:101DD000B9DAC207C18781BF93F5050408C3C9D921
:101DE00083D707001307F0066387E60E9706000007
:101DF0009386865B2947A30104044C400CC463C549
:101E0000050008406D9908C099E3B28A91CDB28A65
:101E1000B3F5E702FD1AB69583C505002380BA0025
:101E2000B3D5E70263FFE70AA147631EF7001C4032
:101E3000858B91CB58401C4863C7E700930700038C
:101E4000A38FFAFEFD1A3306564110C84E87CA8684
:101E50007000A2852685893B7D5A631E450B7D5502
:101E6000B250225492540259F249624AD24A424B29
:101E700045618280A382D504970600009386C652EE
:101E80000C40084313F805081C411105630D0802B6
:101E900008C313F7150001C793E505020CC04147BD
:101EA000B9FB0C4093F5F5FD0CC0B1B79C4193E72D
:101EB00007029CC193078007A302F4049706000061
:101EC0009386C64F75BF13F8050408C3E30308FCE7
:101ED000C207C1837DBF970600009386E64C214769
:101EE00019BFAE8735B794411C43CC4913F8060897
:101EF000138547006306080008C39C438CC301A8F0
:101F000008C393F606049C43F5DA2390B700232810
:101F10000400B28A25BF14485686CA852685829950
:101F2000E30F45F31C40898B8DE7B2474844E359E2
:101F3000F5F23E8535B785465686CA85268582994F
:101F4000E30F65F1050A5C443247998FE345FAFED9
:101F5000E9BF014A930A94017D5BF5B7411122C4A0
:101F60002A842E8523A8018406C6EFE01F86FD572C
:101F70006317F500938701859C4391C31CC0B24051
:101F8000224441018280411122C42E848395E500C0
:101F900006C64522634905007C48AA977CC8B24022
:101FA0002244410182808357C4007D777D17F98FD9
:101FB0002316F400EDB783D7C500011122CC26CA41
:101FC0004AC84EC606CE93F70710AA842E843289DB
:101FD000B68991C78395E50089460146312283572A
:101FE000C4007D777D17F98F2316F4008315E40074
:101FF0006244F240CE864A86B24942492685D2449E
:1020000005613DA8411122C42E848395E50006C6D2
:10201000E128FD570357C400631BF500FD77FD174A
:10202000F98F2316F400B240224441018280856773
:10203000D98F2316F40068C8FDB78395E50005A87D
:10204000411122C42A842E85B285368623A80184B4
:1020500006C6EFE0CFF2FD576317F50093870185C1
:102060009C4391C31CC0B240224441018280411173
:1020700022C42A842E8523A8018406C6CD20FD57BC
:102080006317F500938701859C4391C31CC0B24040
:10209000224441018280411122C42A842E85B285C6
:1020A00023A8018406C6D120FD576317F500938746
:1020B00001859C4391C31CC0B240224441018280EF
:1020C000411122C42A842E8523A8018406C66520D6
:1020D000FD576317F500938701859C4391C31CC08E
:1020E000B240224441018280411122C42A842E85BB
:1020F000B285368623A8018406C66120FD57631782
:10210000F500938701859C4391C31CC0B2402244D3
:102110004101828093F5F50F2A966314C5000145AD
:10212000828083470500E38DB7FE0505FDB78280F9
:102130008280411122C42A842E85B285368623A846
:10214000018406C6A920FD576317F5009387018512
:102150009C4391C31CC0B24022444101828093073A
:10216000800523A8F1847D5582809307800523A8EC
:10217000F1847D5582809307800523A8F184014571
:1021800082809307800523A8F1847D558280930780
:10219000800523A8F1847D5582800000E6010000BF
:1021A000F8010000260200000602000018020000EC
:1021B00070726573730D000072656C656173650DF7
:1021C00000000000636C69636B20312026262063C9
:1021D0006869705F69643A2530386C780D0A0000D0
:1021E000636C69636B20320D000000006C6F6E67DA
:1021F0002070726573730D0053797374656D436C51
:102200006B3A256C640D0A004368697049443A25AD
:1022100030386C780D0A00005468697320697320A7
:102220007072696E7466206578616D706C650D0002
:10223000000102020303030304040404040404046D
:10224000050505050505050505050505050505053E
:10225000060606060606060606060606060606061E
:10226000060606060606060606060606060606060E
:1022700007070707070707070707070707070707EE
:1022800007070707070707070707070707070707DE
:1022900007070707070707070707070707070707CE
:1022A00007070707070707070707070707070707BE
:1022B000080808080808080808080808080808089E
:1022C000080808080808080808080808080808088E
:1022D000080808080808080808080808080808087E
:1022E000080808080808080808080808080808086E
:1022F000080808080808080808080808080808085E
:10230000080808080808080808080808080808084D
:10231000080808080808080808080808080808083D
:10232000080808080808080808080808080808082D
:10233000000000000000000000000000000000009D
:10234000000000000000000000000000000000008D
:10235000000000000000000000000000000000007D
:10236000000000000000000000000000000000006D
:10237000000000000000000000000000000000005D
:10238000000000000000000000000000000000004D
:10239000232D302B20000000686C4C0065666745DB
:1023A0004647000030313233343536373839414210
:1023B000434445460000000030313233343536376F
:0C23C0003839616263646566000000004B
:1023CC0000000000000000000102030406070809D9
:1023DC0000000000010203040102030406070809BF
:1023EC000000000050230000702300003023000088
:1023FC0000000000000000000000000000000000D1
:10240C0000000000000000000000000000000000C0
:10241C0000000000000000000000000000000000B0
:10242C0000000000000000000000000000000000A0
:10243C000000000000000000000000000000000090
:10244C0000D8B805D40000200204060820000020A3
:08245C00200000200000000038
:00000001FF
